:0400000025EF00F0F8
:06000800508215ED12F01C
:100018005080D8CF7CF0E8CF7DF0E0CF7EF09EA274
:1000280018EF00F01AEF00F01DEF00F03CEC0CF0B8
:100038009E927EC0E0FF7DC0E8FF7CC0D8FF509054
:0600480010006AEF13F046
:1008000000C30809083D086B0834034D0069006304
:100810000072006F006300680069007000200054DF
:10082000006500630068006E006F006C006F006779
:10083000007900200049006E0063002E002E035056
:1008400000490043003100380046003400350035CF
:1008500000300020005500530042002000480049AD
:10086000004400200020002000200009022900018F
:100870000100C06409040000020300000009211106
:10088000010001221D000705810340000107050149
:10089000034000010600FF0901A1011901294015CB
:1008A0000026FF007508954081001901294091003C
:1008B000C01201000200000008DA04420000010139
:1008C000020001040309040004012205D8A46BEF0F
:1008D00004F06DEF04F089EF04F020511F0B0009C4
:1008E000D8A475EF04F077EF04F089EF04F000016D
:1008F0006B8F030E04012119D8A481EF04F083EF5C
:1009000004F087EF04F0010E476E89EF04F0000E4B
:10091000476E2251D8A48FEF04F091EF04F011EF4D
:1009200006F020511F0B020AD8A499EF04F09BEFA8
:1009300004F011EF06F024510F0B0009D8B4A3EF17
:1009400004F0A5EF04F011EF06F024510F0B176E21
:10095000020E1760AEEF04F0B0EF04F011EF06F0F6
:10096000200E4A18D8A4B7EF04F0B9EF04F011EF45
:1009700006F000016B8F040124BFC1EF04F0C3EF48
:1009800004F0E0EF04F024510F0B176E1750020D26
:10099000720EF324D96E000EF420DA6EDECF1CF056
:1009A000DDCF1DF024510F0B176E186A760E172439
:1009B000D96E000E1820DA6EDF501B6EFBEF04F0CC
:1009C00024510F0B176E1750020D6E0EF324D96EC3
:1009D000000EF420DA6EDECF1CF0DDCF1DF02451C6
:1009E0000F0B176E186A780E1724D96E000E182098
:1009F000DA6EDF501B6E1BB000EF05F002EF05F062
:100A00000AEF05F0FB0E1C141C6EFF0E1D141D6E6C
:100A10000FEF05F0040E1C101C6E1D501D6E24BF40
:100A200014EF05F016EF05F027EF05F024510F0B3A
:100A3000176E1750020D720EF324D96E000EF420BB
:100A4000DA6E1CC0DEFF1DC0DDFF36EF05F024515D
:100A50000F0B176E1750020D6E0EF324D96E000E99
:100A6000F420DA6E1CC0DEFF1DC0DDFF030E21196D
:100A7000D8A43DEF05F03FEF05F079EF05F01CC07D
:100A8000D9FF1DC0DAFFDFAE48EF05F04AEF05F0F1
:100A90006BEF05F024BF4FEF05F051EF05F05FEF6E
:100AA00005F024510F0B176E186A760E1724D96EB5
:100AB000000E1820DA6E0001DF826BEF05F0245182
:100AC0000F0B176E186A780E1724D96E000E1820B7
:100AD000DA6E0001DF821CC0D9FF1DC0DAFF000EF4
:100AE000DB841CC0D9FF1DC0DAFF000EDB8E11EFC6
:100AF00006F0040E1C181C6E1D501D6E1CC0D9FF84
:100B00001DC0DAFFDFAE87EF05F089EF05F0A5EF36
:100B100005F01CC0D9FF1DC0DAFF7F0EDF161CC018
:100B2000D9FF1DC0DAFF000EDB8C000E106E050E23
:100B30000F6E1CC011F01DC012F0000E146E020EDC
:100B4000136EE8EC10F0ABEF05F01CC0D9FF1DC030
:100B5000DAFF000EDB8C040E1C181C6E1D501D6E7F
:100B60001BB2B5EF05F0B7EF05F0C2EF05F01CC002
:100B7000D9FF1DC0DAFFDFAEC0EF05F0C2EF05F010
:100B8000FAEF05F0040124BFC8EF05F0CAEF05F045
:100B9000D8EF05F024510F0B176E186A760E172444
:100BA000D96E000E1820DA6E0001DF92E4EF05F036
:100BB00024510F0B176E186A780E1724D96E000E89
:100BC0001820DA6E0001DF921CC0D9FF1DC0DAFFC9
:100BD0003B0EDF16000E106E050E0F6E1CC011F0DE
:100BE0001DC012F0000E146E020E136EE8EC10F031
:100BF00000EF06F01CC0D9FF1DC0DAFF3B0EDF1668
:100C0000040124510F0B176E186A700E1724196E09
:100C10000F0E18201A6E19C0D9FF1AC0DAFFFE0E87
:100C2000DF1612004A04D8A418EF06F01AEF06F0F7
:100C300027EF06F06DBA1FEF06F021EF06F027EF61
:100C400006F0000E686E69806988020E4A6E68A41C
:100C50002CEF06F02EEF06F038EF06F069A433EF24
:100C600006F035EF06F038EF06F06894B3EC12F0BA
:100C70006DA23DEF06F03FEF06F042EF06F0A19ABD
:100C800025EF07F068A047EF06F049EF06F056EFB2
:100C900006F069A04EEF06F050EF06F056EF06F0B2
:100CA000FEEC0AF0A08A040E4A6E689068A85BEF1A
:100CB00006F05DEF06F066EF06F069A862EF06F059
:100CC00064EF06F066EF06F054EC13F068AC6BEFDF
:100CD00006F06DEF06F098EF06F069AC72EF06F0E3
:100CE00074EF06F082EF06F0000E106E730E0F6EBA
:100CF000000E116E000E126E000E146E010E136EB9
:100D0000E8EC10F0689C0BEC13F04350D8B48BEF78
:100D100006F08DEF06F08EEF06F043064350D8A4A0
:100D200094EF06F096EF06F098EF06F0EFEC0EF079
:100D300068AA9DEF06F09FEF06F0A8EF06F069AAFB
:100D4000A4EF06F0A6EF06F0A8EF06F0B8EC11F05D
:100D500068A2ADEF06F0AFEF06F0C5EF06F069A2AE
:100D6000B4EF06F0B6EF06F0C5EF06F07F0E106E9A
:100D70000F68000E116E000E126E000E146E010E42
:100D8000136EE8EC10F0000E6A6E040E4A60CBEFB2
:100D900006F0CDEF06F0D0EF06F0A19A25EF07F0B0
:100DA00069A6D5EF06F0D7EF06F024EF07F0000EA6
:100DB0001F6E68A6DEEF06F0E0EF06F024EF07F006
:100DC0006CCF4DF04D30E832E8320F0B456E68962F
:100DD0004DB4EDEF06F0EFEF06F0F9EF06F0760E0A
:100DE0004524D96EDA6A000EDA220001DF7001EFC5
:100DF00007F0780E4524D96EDA6A000EDA22000177
:100E0000DF704550D8A407EF07F009EF07F00DEFAA
:100E100007F0DAEC0FF01BEF07F0000E106E720E09
:100E20000F6E4D0E116E000E126E000E146E000E3F
:100E3000136EE8EC10F01F2A030E1F6422EF07F078
:100E400024EF07F0D9EF06F0A19A1200800E0401FA
:100E50002019D8A42EEF07F030EF07F0D5EF07F0F8
:100E6000C00E00016B6FC5EF07F0B10E0001686F97
:100E7000080E696F000E6D6F120E6C6FD5EF07F0E4
:100E80002251D8A446EF07F048EF07F089EF07F0AA
:100E90002251020D070EF324F66E080EF420F76EB1
:100EA0000900F5CF68F00A00F5CF69F0020E0001E5
:100EB0006825016E000E6921026E01C0F6FF02C0B6
:100EC000F7FFF86A070EF76403D00800F55005D065
:100ED000F6CFE1FFF7CFE2FFE75000016C6F030EA2
:100EE0006825016E000E6921026E01C0F6FF02C086
:100EF000F7FFF86A070EF76403D00800F55005D035
:100F0000F6CFE1FFF7CFE2FFE75000016D6FD5EFBD
:100F100007F0000E00016B6FD5EF07F0030E2261A2
:100F200094EF07F096EF07F0BBEF07F02251020DA8
:100F3000010EF324F66E080EF420F76E0900F5CFCB
:100F400068F00A00F5CF69F068C0F6FF69C0F7FFE6
:100F5000F86A070EF76403D00800F55005D0F6CF05
:100F6000E1FFF7CFE2FFE750016E015000016C6F27
:100F70006D6BD5EF07F0000E00016B6FD5EF07F03A
:100F8000000E00016B6FD5EF07F004012351010A39
:100F9000D8B435EF07F0030AD8B440EF07F0010AE0
:100FA000D8B48EEF07F0C0EF07F012000401205113
:100FB0001F0BE806D8B4DFEF07F0E1EF07F0E3EF2F
:100FC00007F07AEF08F02451D8B4E9EF07F0EBEF1F
:100FD00007F0EDEF07F07AEF08F0060E2119D8A41C
:100FE000F4EF07F0F6EF07F029EF08F01AEF08F03A
:100FF0004F04D8A4FEEF07F000EF08F029EF08F047
:101000007D0E0001686F080E696F000E6D6F090E8E
:101010006C6FC00E6B6F29EF08F0940E0001686FC3
:10102000080E696F000E6D6F1D0E6C6FC00E6B6F3A
:1010300029EF08F02351210AD8B4F8EF07F0030A8A
:10104000D8B40DEF08F0010AD8B429EF08F029EF61
:1010500008F004012039E832030BE806D8B433EF76
:1010600008F035EF08F05FEF08F07AEF08F04C0E6B
:101070000001686F000E696F000E6D6F010E6C6FDE
:10108000C10E6B6F7AEF08F0800E00016B6F23C406
:101090004CF07AEF08F04B0E0001686F000E696F9C
:1010A000000E6D6F010E6C6F810E6B6F7AEF08F0A2
:1010B000800E00016B6F22C44BF07AEF08F02151D3
:1010C000010AD8B47AEF08F0030AD8B437EF08F071
:1010D000010AD8B44BEF08F00A0AD8B47AEF08F046
:1010E000030AD8B444EF08F0010AD8B458EF08F066
:1010F0007AEF08F0120020EE01F03850D92639506E
:10110000DA22DF50026E02500001645D000E655964
:10111000D8B08DEF08F08FEF08F091EF08F064C0C1
:1011200002F00250645F000E655B000E016EA8EFD6
:1011300008F0280E0124D96EDA6A040EDA2260C0A3
:10114000E1FF61C0E2FFDFCFE7FF604B612B012AC7
:101150000250015CD8A0AFEF08F0B1EF08F099EFB2
:1011600008F064516511D8B4B8EF08F0BAEF08F090
:10117000F3EF08F020EE01F03650D9263750DA228E
:10118000080EDF6E20EE02F03650D9263750DA22F4
:10119000280EDE6E040EDD6E38C0D9FF39C0DAFFCE
:1011A000DFBCD5EF08F0D7EF08F0E5EF08F036C068
:1011B000D9FF37C0DAFF480EDF6E36C0D9FF37C01F
:1011C000DAFF000EDB8E1CEF09F036C0D9FF37C006
:1011D000DAFF080EDF6E36C0D9FF37C0DAFF000E27
:1011E000DB8E1CEF09F020EE01F03650D926375087
:1011F000DA22080EDF6E20EE02F03650D926375084
:10120000DA22200EDE6E040EDD6E36C0D9FF37C046
:10121000DAFF040EDF6E36C0D9FF37C0DAFF000EEA
:10122000DB8E639F4250D8A418EF09F01AEF09F043
:101230001CEF09F0EFEC0EF012000001876F0001C7
:101240007F51D8B426EF09F028EF09F036EF09F006
:101250008751020D6E0EF324D96E000EF420DA6E63
:10126000DECF88F0DDCF89F042EF09F08751020D23
:10127000720EF324D96E000EF420DA6EDECF88F001
:10128000DDCF89F088518911D8A449EF09F04BEFDF
:1012900009F051EF09F0000E7F6F000E806FBDEF77
:1012A00009F020EE02F08851D9268951DA2280C057
:1012B000DEFF81C0DDFF20EE01F08851D926895183
:1012C000DA2282C0DFFF88C0D9FF89C0DAFF400E72
:1012D000DF1688C0D9FF89C0DAFF000EDB8688C020
:1012E000D9FF89C0DAFF000EDB8E7F51D8B47BEFC7
:1012F00009F07DEF09F09CEF09F08751020D6E0EA9
:10130000F324D96E000EF420DA6EDECF83F0DDCF49
:1013100084F0040E8319856F8451866F8751020D06
:101320006E0EF324D96E000EF420DA6E85C0DEFF57
:1013300086C0DDFFB9EF09F08751020D720EF3246C
:10134000D96E000EF420DA6EDECF83F0DDCF84F0AC
:10135000040E8319856F8451866F8751020D720EBA
:10136000F324D96E000EF420DA6E85C0DEFF86C04D
:10137000DDFF88C07FF089C080F012006D98000109
:101380006BBFC5EF09F0C7EF09F00CEF0AF063AFD0
:10139000CCEF09F0CEEF09F0E0EF09F0020E486E55
:1013A0003E50D8A4D6EF09F0D8EF09F0DAEF09F0F3
:1013B00036EC10F0000E406E000E416E5EEF0AF04B
:1013C00020EE01F03650D9263750DA22080EDF6EB3
:1013D00020EE02F03650D9263750DA22200EDE6E8B
:1013E000040EDD6E36C0D9FF37C0DAFF0C0EDF6E9B
:1013F00036C0D9FF37C0DAFF000EDB8E6EC0D9FFD2
:101400006FC0DAFF040EDF6E6EC0D9FF6FC0DAFF67
:10141000000EDB8E5EEF0AF0040120AF12EF0AF03F
:1014200014EF0AF030EF0AF0010E486E3F50D8A4D6
:101430001CEF0AF01EEF0AF020EF0AF036EC10F075
:10144000000E406E000E416E4250D8A42AEF0AF002
:101450002CEF0AF05EEF0AF0EFEC0EF05EEF0AF010
:10146000020E486E20EE01F03650D9263750DA22AF
:10147000080EDF6E20EE02F03650D9263750DA2201
:10148000200EDE6E040EDD6E36C0D9FF37C0DAFFE7
:10149000040EDF6E36C0D9FF37C0DAFF000EDB8ED8
:1014A000000E406E000E416E4250D8A45AEF0AF072
:1014B0005CEF0AF05EEF0AF02CEF0AF01200A09A3F
:1014C000000E6A6E000E686E000E706E710E0001E6
:1014D0007F6F0F0E806F000E826F000E816F000E07
:1014E000846F010E836FD2EC12F0160E6F6E9F0E9A
:1014F0006B6E7B0E696E000E0001876F8751040DC5
:10150000000EF324D96E040EF420DA6EDE6ADE6A71
:10151000DE6ADD6A872B070E876591EF0AF093EF8D
:101520000AF07EEF0AF06D8C000E6E6E6D986D9C69
:101530006896000E6B6F000E636F000E656F000EF5
:10154000646F68B6A6EF0AF0A8EF0AF098EF0AF009
:10155000010E416E010E406E000E3F6E000E3E6E9B
:10156000000E466E000E876F8751020D6E0EF3243B
:10157000D96E000EF420DA6EDE6ADD6A8751020D44
:10158000720EF324D96E000EF420DA6EDE6ADD6A84
:10159000780E8725D96EDA6A000EDA22DF6A760EB7
:1015A0008725D96EDA6A000EDA22DF6A872B010EF0
:1015B0008765DDEF0AF0DFEF0AF0B4EF0AF0080EFE
:1015C0006E6F040E6F6F160E706E040E0401036FC3
:1015D000200E026F080E016F040E006F008F000EC8
:1015E0004F6E000E2A6E000E2B6E000E2C6E000E3B
:1015F0002D6E000E3D6E000E4A6E1200A09A000E77
:101600006A6E000E686E000E706E710E016E0F0E27
:10161000026E000E046E000E036E000E066E010ECA
:10162000056EEFEC12F0160E6F6E9F0E6B6E7B0E5A
:10163000696E000E096E0950040D000EF324D96E78
:10164000040EF420DA6EDE6ADE6ADE6ADD6A092ADA
:10165000070E09642EEF0BF030EF0BF01BEF0BF0D1
:101660006D8C000E6E6E6D986D9C6896000E00017C
:101670006B6F000E636F000E656F000E646F68B6CF
:1016800044EF0BF046EF0BF035EF0BF0010E416E1F
:10169000010E406E000E3F6E000E3E6E000E466E56
:1016A000000E096E0950020D6E0EF324D96E000E65
:1016B000F420DA6EDE6ADD6A0950020D720EF32440
:1016C000D96E000EF420DA6EDE6ADD6A780E092427
:1016D000D96EDA6A000EDA22DF6A760E0924D96E34
:1016E000DA6A000EDA22DF6A092A010E09647BEF4A
:1016F0000BF07DEF0BF052EF0BF0080E00016E6F58
:10170000040E6F6F160E706E040E0401036F200E30
:10171000026F080E016F040E006F008F000E4F6EF7
:10172000000E2A6E000E2B6E000E2C6E000E2D6E1B
:10173000000E3D6E000E4A6E1200096E0150D8B4C4
:10174000A4EF0BF0A6EF0BF0B4EF0BF00950020D75
:101750006E0EF324D96E000EF420DA6EDECF0AF09E
:10176000DDCF0BF0C0EF0BF00950020D720EF32429
:10177000D96E000EF420DA6EDECF0AF0DDCF0BF06A
:101780000A500B10D8A4C7EF0BF0C9EF0BF0CFEF46
:101790000BF0000E016E000E026E3BEF0CF020EE1F
:1017A00002F00A50D9260B50DA2202C0DEFF03C035
:1017B000DDFF20EE01F00A50D9260B50DA2204C0DA
:1017C000DFFF0AC0D9FF0BC0DAFF400EDF160AC0E8
:1017D000D9FF0BC0DAFF000EDB860AC0D9FF0BC0B1
:1017E000DAFF000EDB8E0150D8B4F9EF0BF0FBEFFF
:1017F0000BF01AEF0CF00950020D6E0EF324D96EA7
:10180000000EF420DA6EDECF05F0DDCF06F0040E18
:101810000518076E0650086E0950020D6E0EF3246F
:10182000D96E000EF420DA6E07C0DEFF08C0DDFFBF
:1018300037EF0CF00950020D720EF324D96E000E32
:10184000F420DA6EDECF05F0DDCF06F0040E0518C9
:10185000076E0650086E0950020D720EF324D96E01
:10186000000EF420DA6E07C0DEFF08C0DDFF0AC0FC
:1018700001F00BC002F01200000E2E5C010E2F587A
:10188000D8B045EF0CF047EF0CF04BEF0CF02E4AC0
:101890002F2A4FEF0CF0000E2F6E000E2E6E3C50D4
:1018A00000017A6F7B6B2E507A5D2F507B59D8A048
:1018B0005CEF0CF05EEF0CF06CEF0CF03C50D8A439
:1018C00064EF0CF066EF0CF069EF0CF08B907BEF9F
:1018D0000CF08B807BEF0CF03C507A6F7B6B2E50C2
:1018E0007A5D2F507B59D8B078EF0CF07AEF0CF07E
:1018F0007BEF0CF08B903B507A6F7B6B2E507A5DB8
:101900002F507B59D8A087EF0CF089EF0CF097EFA0
:101910000CF03B50D8A48FEF0CF091EF0CF094EF4B
:101920000CF08B92A6EF0CF08B82A6EF0CF03B50E4
:101930007A6F7B6B2E507A5D2F507B59D8B0A3EF16
:101940000CF0A5EF0CF0A6EF0CF08B923A507A6FEA
:101950007B6B2E507A5D2F507B59D8A0B2EF0CF0E4
:10196000B4EF0CF0C2EF0CF03A50D8A4BAEF0CF080
:10197000BCEF0CF0BFEF0CF08B94D1EF0CF08B842C
:10198000D1EF0CF03A507A6F7B6B2E507A5D2F506E
:101990007B59D8B0CEEF0CF0D0EF0CF0D1EF0CF0BB
:1019A0008B94120004012039E832030B0009D8B4EB
:1019B000DCEF0CF0DEEF0CF02BEF0DF05AEF0DF03A
:1019C00000016B8F080E4A6E5AEF0DF026EC07F0FF
:1019D0005AEF0DF067EC0FF05AEF0DF04F0E0001CB
:1019E000686F000E696F6B81010E6C6F6B8F5AEF21
:1019F0000DF0E3EC0DF05AEF0DF064EC04F05AEF4B
:101A00000DF04E0E24250001686F696B000E6923EE
:101A10006B81010E6C6F6B8F5AEF0DF000016B8FB5
:101A20004E0E04012425D96EDA6A000EDA2222C491
:101A3000DFFF5AEF0DF0000E106E020E0F6E000E5B
:101A4000116E000E126E000E146E000E136EE8EC96
:101A500010F05AEF0DF02151000AD8B4F9EF0CF054
:101A6000010AD8B4FDEF0CF0020AD8B4FDEF0CF077
:101A7000060AD8B4E0EF0CF0030AD8B4E6EF0CF095
:101A8000010AD8B41BEF0DF00F0AD8B4EEEF0CF03A
:101A9000010AD8B4EAEF0CF0030AD8B401EF0DF054
:101AA000010AD8B40EEF0DF0070AD8B45AEF0DF0C2
:101AB0005AEF0DF01200080E016E00016D5107E1A2
:101AC000080E6C5DD8B067EF0DF069EF0DF081EF97
:101AD0000DF06CC001F04950D8A471EF0DF073EF18
:101AE0000DF077EF0DF0010E496E81EF0DF0490416
:101AF000D8A47DEF0DF07FEF0DF081EF0DF0020E19
:101B0000496E01506C5F000E6D5B20EE01F06E516E
:101B1000D9266F51DA2201C0DFFF280E346E040E81
:101B2000356E6BB196EF0DF098EF0DF0DAEF0DF02A
:101B3000B5EF0DF068C0F6FF69C0F7FFF86A34C072
:101B4000D9FF35C0DAFF070EF76403D00800F5505F
:101B500005D0F6CFE1FFF7CFE2FFE750DF6E0001DF
:101B6000684B692B344A352A01060150D8A4BBEFD3
:101B70000DF0BDEF0DF09AEF0DF0E2EF0DF068C043
:101B8000F6FF69C0F7FFF86A34C0D9FF35C0DAFF45
:101B9000070EF76403D00800F55005D0F6CFE1FF3B
:101BA000F7CFE2FFE750DF6E0001684B692B344A44
:101BB000352A01060150D8A4E0EF0DF0E2EF0DF058
:101BC000BFEF0DF01200000E0401286F000E296F08
:101BD0004AEF0EF000016B8F4704D8A4F2EF0DF02E
:101BE000F4EF0DF05AEF0EF0040128835AEF0EF0D7
:101BF00000016B8F5AEF0EF000016B8F040124512E
:101C00000F0B0009D8B407EF0EF009EF0EF05AEFF2
:101C10000EF024BF0EEF0EF010EF0EF021EF0EF0DD
:101C200024510F0B016E0150020D720EF324D96E78
:101C3000000EF420DA6EDECF02F0DDCF03F030EFDD
:101C40000EF024510F0B016E0150020D6E0EF324A5
:101C5000D96E000EF420DA6EDECF02F0DDCF03F095
:101C600002C0D9FF03C0DAFFDFAE39EF0EF03BEF61
:101C70000EF05AEF0EF002C0D9FF03C0DAFFDFA466
:101C800044EF0EF046EF0EF05AEF0EF0010E286F03
:101C90005AEF0EF020511F0B000AD8B4EAEF0DF0F6
:101CA000010AD8B4F8EF0DF0030AD8B4FCEF0DF038
:101CB0005AEF0EF000016BAF60EF0EF062EF0EF026
:101CC00069EF0EF0280E686F040E696F6B81020ECB
:101CD0006C6F12006EC0D9FF6FC0DAFF0001000EFA
:101CE000DFBC010E026E040E6E196E6F6F516F6FC6
:101CF000080E4A18D8A47FEF0EF081EF0EF093EF94
:101D00000EF0040122517F0B6E6E6E50D8B48BEF33
:101D10000EF08DEF0EF091EF0EF0100E4A6E93EF75
:101D20000EF0040E4A6E4804D8A499EF0EF09BEF13
:101D30000EF0E3EF0EF0000120EE02F06E51D92616
:101D40006F51DA22280EDE6E040EDD6E5BEC0DF0B4
:101D5000020E4918D8A4AFEF0EF0B1EF0EF0BFEFAE
:101D60000EF06EC0D9FF6FC0DAFF040EDF6E6EC0DA
:101D7000D9FF6FC0DAFF000EDB8EEEEF0EF00250DF
:101D8000D8A4C5EF0EF0C7EF0EF0D5EF0EF06EC081
:101D9000D9FF6FC0DAFF480EDF6E6EC0D9FF6FC08B
:101DA000DAFF000EDB8EEEEF0EF06EC0D9FF6FC0D3
:101DB000DAFF080EDF6E6EC0D9FF6FC0DAFF000ECB
:101DC000DB8EEEEF0EF0000163AFE9EF0EF0EBEF0C
:101DD0000EF0ECEF0EF0639F000E486E12004150C3
:101DE000D8A4F5EF0EF0F7EF0EF066EF0FF0010E4E
:101DF000416E4050D8A4FFEF0EF001EF0FF066EFF8
:101E00000FF0010E406E020E4818D8A40AEF0FF032
:101E10000CEF0FF022EF0FF0000120EE01F06E51F9
:101E2000D9266F51DA22DF6A6EC0D9FF6FC0DAFFA0
:101E3000480EDF6E6EC0D9FF6FC0DAFF000EDB8E7A
:101E400066EF0FF04804D8A428EF0FF02AEF0FF048
:101E500066EF0FF0000E446E20EE01F03850D926E8
:101E60003950DA22080EDF6E20EE02F03850D92603
:101E70003950DA22200EDE6E040EDD6E38C0D9FF36
:101E800039C0DAFF040EDF6E38C0D9FF39C0DAFF7F
:101E9000000EDB8E010E446E20EE01F03650D92686
:101EA0003750DA22080EDF6E20EE02F03650D926C7
:101EB0003750DA22200EDE6E040EDD6E36C0D9FFFA
:101EC00037C0DAFF800EDF6E66EF0FF01200000100
:101ED0006B8F710E016E0F0E026E000E046E000EFF
:101EE000036E000E066E010E056EEFEC12F0000E92
:101EF000016E040E026E000E046E000E036E000EE4
:101F0000066E200E056EEFEC12F06D8C000E176E53
:101F1000780E1724D96EDA6A000EDA22DF6A760E9E
:101F20001724D96EDA6A000EDA22DF6A172A010E48
:101F300017649DEF0FF09FEF0FF088EF0FF04E0E3C
:101F4000016E000E026E000E046E000E036E000E97
:101F5000066E010E056EEFEC12F06D9C080E00018E
:101F60006E6F040E6F6F000E386E040E396E38C03F
:101F700036F039C037F022C44FF04F50D8A4C3EF29
:101F80000FF0C5EF0FF0C9EF0FF0100E4A6ED9EF4A
:101F90000FF0000E106E010E0F6E4F0E116E000E40
:101FA000126E000E146E010E136EE8EC10F0200E8F
:101FB0004A6E12002D0E436E4DC01EF0FD0E1E1611
:101FC000D8A4E5EF0FF0E7EF0FF029EF10F04DC0C8
:101FD0001EF0D8901E323F0E1E161E50040D000E2D
:101FE000F324386E040EF420396E38C036F039C050
:101FF00037F0040E3618366E3750376E38C0D9FFBA
:1020000039C0DAFFDF30E8320F0B0D0AD8A40BEF2E
:1020100010F00DEF10F025EF10F0200E016E040E01
:10202000026E20EE02F03850D9263950DA22DECF87
:1020300003F0DDCF04F0000E066E080E056E42ECD4
:1020400012F036EC11F035EF10F07EEC11F035EFB8
:1020500010F04D50FD0B040AD8A431EF10F033EF0F
:1020600010F035EF10F06AEC0EF01200000E3F6E2B
:10207000000E3E6E020E4818D8A441EF10F043EF58
:1020800010F063EF10F020EE01F03650D9263750F3
:10209000DA22080EDF6E20EE02F03650D9263750D5
:1020A000DA22280EDE6E040EDD6E36C0D9FF37C090
:1020B000DAFF480EDF6E36C0D9FF37C0DAFF000EF8
:1020C000DB8E8FEF10F000016C510401265D0001E2
:1020D0006D5104012759D8B070EF10F072EF10F075
:1020E00076EF10F026C46CF027C46DF05BEC0DF0B9
:1020F000000120EE02F06E51D9266F51DA22280E2F
:10210000DE6E040EDD6E6EC0D9FF6FC0DAFF480EC2
:10211000DF6E6EC0D9FF6FC0DAFF000EDB8E1200DB
:10212000086E000E096E040E0A6E0150026E036AFC
:10213000D890023603360850046E056AD8900436EB
:102140000536D8900436053602500424066E035036
:102150000520076ED89006360736D8900636073623
:102160000650092607500A2209C0D9FF0AC0DAFF23
:10217000DF9E0150D8A4BFEF10F0C1EF10F0CFEFF9
:1021800010F00850020D720EF324D96E000EF420E8
:10219000DA6E09C0DEFF0AC0DDFFDBEF10F0085089
:1021A000020D6E0EF324D96E000EF420DA6E09C013
:1021B000DEFF0AC0DDFF09C0D9FF0AC0DAFFDF9CDD
:1021C00020EE04F00950D9260A50DA22DF8C1200E2
:1021D000FCEF10F0010E90EC13F035EF11F0020E51
:1021E00090EC13F035EF11F024EC13F035EF11F013
:1021F000D6EC07F035EF11F00FC015F010C016F057
:102200001650000AD8B40BEF11F07F0AD8B42EEFA5
:1022100011F035EF11F01550010AD8B4F4EF10F0B9
:10222000030AD8B435EF11F0010AD8B4F8EF10F072
:10223000060AD8B435EF11F0770AD8B435EF11F0AB
:10224000010AD8B435EF11F0070AD8B4EFEF10F057
:10225000010AD8B4EAEF10F035EF11F01550FF0A7B
:10226000D8B435EF11F035EF11F01200000E496EC1
:10227000000E426E000E3F6E000E3E6E000E446E6B
:10228000000E486E6EC0D9FF6FC0DAFF7F0EDF16FA
:10229000040E00016E196E6F6F516F6F6EC0D9FF23
:1022A0006FC0DAFF7F0EDF16040E6E196E6F6F516E
:1022B0006F6F36C0D9FF37C0DAFF7F0EDF16000E12
:1022C0006B6F000E6D6F000E6C6F000E636F000E73
:1022D000656F000E646FD2EC0CF0000E106E030EF2
:1022E0000F6E000E116E000E126E000E146E000EB8
:1022F000136EE8EC10F0BEEC09F01200020E481864
:10230000D8A485EF11F087EF11F08BEF11F07BEC83
:1023100008F0B7EF11F0000E486E4450D8A493EFC8
:1023200011F095EF11F0B5EF11F020EE01F03650FD
:10233000D9263750DA22080EDF6E20EE02F0365032
:10234000D9263750DA22200EDE6E040EDD6E36C03E
:10235000D9FF37C0DAFF0C0EDF6E36C0D9FF37C0A9
:10236000DAFF000EDB8EB7EF11F0000E446E1200A4
:1023700070A0BDEF11F0BFEF11F0E6EF11F038C023
:10238000D9FF39C0DAFF800EDE18D8A4CAEF11F0E9
:10239000CCEF11F0E5EF11F06EC0D9FF6FC0DAFF9E
:1023A000840EDE18D8A4D7EF11F0D9EF11F0E5EFC5
:1023B00011F038C0D9FF39C0DAFF0C0EDF6E38C01B
:1023C000D9FF39C0DAFF000EDB8E7090689A1200D8
:1023D000000E7DEC13F05FEC0AF090EC12F03DEC97
:1023E00013F0000E00017F6F000E806F050E816FED
:1023F000400E826F010E1DEC09F07FC032F080C0EC
:1024000033F005010305D8A408EF12F00AEF12F02B
:10241000F1EF11F001C57FF002C580F00051A1EC91
:1024200013F0F1EF11F025EF00F00600E1CF20F0FE
:10243000E2CF21F0D9CF22F0DACF23F0F3CF24F08E
:10244000F4CF25F0F6CF26F0F7CF27F0F8CF28F01D
:10245000F5CF29F012EC06F029C0F5FF28C0F8FFEF
:1024600027C0F7FF26C0F6FF25C0F4FF24C0F3FF06
:1024700023C0DAFF22C0D9FF21C0E2FF20C0E1FF64
:102480005092110003C009F004C00AF001C007F027
:1024900002C008F05CEF12F009C0D9FF0AC0DAFFF1
:1024A000DF500B6E094A0A2A07C0D9FF08C0DAFFBD
:1024B0000BC0DFFF074A082A0506D8A00606052834
:1024C00006E10628D8A467EF12F069EF12F04CEF8E
:1024D00012F012000E6E0BA470EF12F072EF12F0F9
:1024E00077EF12F0000E016E0E5090EC10F00BA280
:1024F0007CEF12F07EEF12F083EF12F0010E016E0E
:102500000E5090EC10F0700E0E240C6E0D6A0F0E33
:102510000D220CC0D9FF0DC0DAFF0BC0DFFF120087
:102520004A50D8A496EF12F098EF12F0B2EF12F0E2
:10253000000E6D6E000E696E160E6F6E9F0E6B6E46
:102540007B0E696ED08EA28AA08AF28EA9EF12F05D
:102550006D866DA6AEEF12F0B0EF12F0A8EF12F09C
:10256000010E4A6E1200000E466E000E106E740EC2
:102570000F6E000E116E000E126E000E146E000E25
:10258000136EE8EC10F06D926994C8EF12F0689445
:1025900068B4CDEF12F0CFEF12F0C7EF12F0000EDB
:1025A0003D6E12007FC085F080C086F0E0EF12F033
:1025B00085C0D9FF86C0DAFF81C0DFFF854B862B3F
:1025C00000018307D8A08407832906E18429D8A4C1
:1025D000ECEF12F0EEEF12F0D8EF12F0120001C0A3
:1025E00007F002C008F0FDEF12F007C0D9FF08C0E5
:1025F000DAFF03C0DFFF074A082A0506D8A006064F
:10260000052806E10628D8A408EF13F00AEF13F016
:10261000F5EF12F01200010E2A26000E2B222C22BA
:102620002D224650D8A417EF13F019EF13F023EF23
:1026300013F03D2A3D50D8A420EF13F022EF13F001
:1026400023EF13F03D681200000E306E000E316E65
:102650001E0E0B6E010E6AEC12F0000E016E000EE3
:10266000026E050E036E400E046E010E9DEC0BF023
:1026700001C032F002C033F012009494949294900E
:102680007F0E3A6E3AC03BF03BC03CF0000E2F6E1E
:10269000000E2E6E9D829F92F28EF28C100ECB6EEB
:1026A000000ECA6ECA841200698468986D82010E99
:1026B000466E000E3D6E000E106E750E0F6E000E13
:1026C000116E000E126E000E146E000E136EE8EC0A
:1026D00010F0120000EE60F01A0EEE6AE806FDE15E
:1026E00000EE2AF0260EEE6AE806FDE150905092C8
:1026F000000EF86E0001E8EF11F000017F6F00019D
:102700007F51000AD8B48FEF13F0010AD8B48FEFCD
:1027100013F0030AD8B48FEF13F08FEF13F0120009
:10272000016E0150000AD8B4A0EF13F0010AD8B42A
:10273000A0EF13F0030AD8B4A0EF13F0A0EF13F04A
:1027400012000001816F000E3A6E3AC03BF03BC0B0
:102750003CF0000181513C267F513B2680513A26B6
:02276000120065
:020000040020DA
:08000000FFFFFFFFFFFFFFFF00
:020000040030CA
:0E000000240E3F1EFF8181FF0FC00FE00F4056
:00000001FF
